{
  "_format": "hh-sol-artifact-1",
  "contractName": "ActifyEscrow",
  "sourceName": "contracts/ActifyEscrow.sol",
  "abi": [
    {
      "inputs": [
        {
          "internalType": "address",
          "name": "_token",
          "type": "address"
        },
        {
          "internalType": "address",
          "name": "_treasury",
          "type": "address"
        }
      ],
      "stateMutability": "nonpayable",
      "type": "constructor"
    },
    {
      "inputs": [
        {
          "internalType": "address",
          "name": "owner",
          "type": "address"
        }
      ],
      "name": "OwnableInvalidOwner",
      "type": "error"
    },
    {
      "inputs": [
        {
          "internalType": "address",
          "name": "account",
          "type": "address"
        }
      ],
      "name": "OwnableUnauthorizedAccount",
      "type": "error"
    },
    {
      "inputs": [
        {
          "internalType": "address",
          "name": "token",
          "type": "address"
        }
      ],
      "name": "SafeERC20FailedOperation",
      "type": "error"
    },
    {
      "anonymous": false,
      "inputs": [
        {
          "indexed": true,
          "internalType": "address",
          "name": "previousOwner",
          "type": "address"
        },
        {
          "indexed": true,
          "internalType": "address",
          "name": "newOwner",
          "type": "address"
        }
      ],
      "name": "OwnershipTransferred",
      "type": "event"
    },
    {
      "anonymous": false,
      "inputs": [
        {
          "indexed": true,
          "internalType": "bytes32",
          "name": "orderId",
          "type": "bytes32"
        },
        {
          "indexed": true,
          "internalType": "address",
          "name": "buyer",
          "type": "address"
        },
        {
          "indexed": false,
          "internalType": "uint256",
          "name": "amount",
          "type": "uint256"
        }
      ],
      "name": "TokensLocked",
      "type": "event"
    },
    {
      "anonymous": false,
      "inputs": [
        {
          "indexed": true,
          "internalType": "bytes32",
          "name": "orderId",
          "type": "bytes32"
        },
        {
          "indexed": true,
          "internalType": "address",
          "name": "buyer",
          "type": "address"
        },
        {
          "indexed": false,
          "internalType": "uint256",
          "name": "amount",
          "type": "uint256"
        }
      ],
      "name": "TokensRefunded",
      "type": "event"
    },
    {
      "anonymous": false,
      "inputs": [
        {
          "indexed": true,
          "internalType": "bytes32",
          "name": "orderId",
          "type": "bytes32"
        },
        {
          "indexed": true,
          "internalType": "address",
          "name": "buyer",
          "type": "address"
        },
        {
          "indexed": false,
          "internalType": "uint256",
          "name": "amount",
          "type": "uint256"
        }
      ],
      "name": "TokensReleased",
      "type": "event"
    },
    {
      "inputs": [
        {
          "internalType": "bytes32",
          "name": "",
          "type": "bytes32"
        }
      ],
      "name": "escrows",
      "outputs": [
        {
          "internalType": "address",
          "name": "buyer",
          "type": "address"
        },
        {
          "internalType": "uint256",
          "name": "amount",
          "type": "uint256"
        },
        {
          "internalType": "enum ActifyEscrow.EscrowStatus",
          "name": "status",
          "type": "uint8"
        },
        {
          "internalType": "uint256",
          "name": "createdAt",
          "type": "uint256"
        }
      ],
      "stateMutability": "view",
      "type": "function"
    },
    {
      "inputs": [
        {
          "internalType": "bytes32",
          "name": "orderId",
          "type": "bytes32"
        }
      ],
      "name": "getEscrow",
      "outputs": [
        {
          "components": [
            {
              "internalType": "address",
              "name": "buyer",
              "type": "address"
            },
            {
              "internalType": "uint256",
              "name": "amount",
              "type": "uint256"
            },
            {
              "internalType": "enum ActifyEscrow.EscrowStatus",
              "name": "status",
              "type": "uint8"
            },
            {
              "internalType": "uint256",
              "name": "createdAt",
              "type": "uint256"
            }
          ],
          "internalType": "struct ActifyEscrow.Escrow",
          "name": "",
          "type": "tuple"
        }
      ],
      "stateMutability": "view",
      "type": "function"
    },
    {
      "inputs": [
        {
          "internalType": "bytes32",
          "name": "orderId",
          "type": "bytes32"
        },
        {
          "internalType": "uint256",
          "name": "amount",
          "type": "uint256"
        }
      ],
      "name": "lockTokens",
      "outputs": [],
      "stateMutability": "nonpayable",
      "type": "function"
    },
    {
      "inputs": [],
      "name": "owner",
      "outputs": [
        {
          "internalType": "address",
          "name": "",
          "type": "address"
        }
      ],
      "stateMutability": "view",
      "type": "function"
    },
    {
      "inputs": [
        {
          "internalType": "bytes32",
          "name": "orderId",
          "type": "bytes32"
        }
      ],
      "name": "refundTokens",
      "outputs": [],
      "stateMutability": "nonpayable",
      "type": "function"
    },
    {
      "inputs": [
        {
          "internalType": "bytes32",
          "name": "orderId",
          "type": "bytes32"
        }
      ],
      "name": "releaseTokens",
      "outputs": [],
      "stateMutability": "nonpayable",
      "type": "function"
    },
    {
      "inputs": [],
      "name": "renounceOwnership",
      "outputs": [],
      "stateMutability": "nonpayable",
      "type": "function"
    },
    {
      "inputs": [
        {
          "internalType": "address",
          "name": "_treasury",
          "type": "address"
        }
      ],
      "name": "setTreasury",
      "outputs": [],
      "stateMutability": "nonpayable",
      "type": "function"
    },
    {
      "inputs": [],
      "name": "token",
      "outputs": [
        {
          "internalType": "contract IERC20",
          "name": "",
          "type": "address"
        }
      ],
      "stateMutability": "view",
      "type": "function"
    },
    {
      "inputs": [
        {
          "internalType": "address",
          "name": "newOwner",
          "type": "address"
        }
      ],
      "name": "transferOwnership",
      "outputs": [],
      "stateMutability": "nonpayable",
      "type": "function"
    },
    {
      "inputs": [],
      "name": "treasury",
      "outputs": [
        {
          "internalType": "address",
          "name": "",
          "type": "address"
        }
      ],
      "stateMutability": "view",
      "type": "function"
    }
  ],
  "bytecode": "0x60a06040523480156200001157600080fd5b50604051620017a3380380620017a383398181016040528101906200003791906200026a565b33600073ffffffffffffffffffffffffffffffffffffffff168173ffffffffffffffffffffffffffffffffffffffff1603620000ad5760006040517f1e4fbdf7000000000000000000000000000000000000000000000000000000008152600401620000a49190620002c2565b60405180910390fd5b620000be816200013c60201b60201c565b508173ffffffffffffffffffffffffffffffffffffffff1660808173ffffffffffffffffffffffffffffffffffffffff168152505080600160006101000a81548173ffffffffffffffffffffffffffffffffffffffff021916908373ffffffffffffffffffffffffffffffffffffffff1602179055505050620002df565b60008060009054906101000a900473ffffffffffffffffffffffffffffffffffffffff169050816000806101000a81548173ffffffffffffffffffffffffffffffffffffffff021916908373ffffffffffffffffffffffffffffffffffffffff1602179055508173ffffffffffffffffffffffffffffffffffffffff168173ffffffffffffffffffffffffffffffffffffffff167f8be0079c531659141344cd1fd0a4f28419497f9722a3daafe3b4186f6b6457e060405160405180910390a35050565b600080fd5b600073ffffffffffffffffffffffffffffffffffffffff82169050919050565b6000620002328262000205565b9050919050565b620002448162000225565b81146200025057600080fd5b50565b600081519050620002648162000239565b92915050565b6000806040838503121562000284576200028362000200565b5b6000620002948582860162000253565b9250506020620002a78582860162000253565b9150509250929050565b620002bc8162000225565b82525050565b6000602082019050620002d96000830184620002b1565b92915050565b6080516114936200031060003960008181610418015281816105e60152818161090d0152610b4e01526114936000f3fe608060405234801561001057600080fd5b50600436106100a95760003560e01c80638da5cb5b116100715780638da5cb5b146101415780639f1fa6e21461015f578063f023b8111461017b578063f0f44260146101ab578063f2fde38b146101c7578063fc0c546a146101e3576100a9565b80632d83549c146100ae5780634397ca80146100e157806361d027b3146100fd578063715018a61461011b5780638bdda62114610125575b600080fd5b6100c860048036038101906100c39190610edb565b610201565b6040516100d89493929190610fd9565b60405180910390f35b6100fb60048036038101906100f69190610edb565b61025e565b005b6101056104d7565b604051610112919061101e565b60405180910390f35b6101236104fd565b005b61013f600480360381019061013a9190611065565b610511565b005b610149610769565b604051610156919061101e565b60405180910390f35b61017960048036038101906101749190610edb565b610792565b005b61019560048036038101906101909190610edb565b6109a8565b6040516101a29190611127565b60405180910390f35b6101c560048036038101906101c0919061116e565b610a7a565b005b6101e160048036038101906101dc919061116e565b610ac6565b005b6101eb610b4c565b6040516101f891906111fa565b60405180910390f35b60026020528060005260406000206000915090508060000160009054906101000a900473ffffffffffffffffffffffffffffffffffffffff16908060010154908060020160009054906101000a900460ff16908060030154905084565b60006002600083815260200190815260200160002090506001600381111561028957610288610f62565b5b8160020160009054906101000a900460ff1660038111156102ad576102ac610f62565b5b146102ed576040517f08c379a00000000000000000000000000000000000000000000000000000000081526004016102e490611272565b60405180910390fd5b3373ffffffffffffffffffffffffffffffffffffffff168160000160009054906101000a900473ffffffffffffffffffffffffffffffffffffffff1673ffffffffffffffffffffffffffffffffffffffff16148061037d575061034e610769565b73ffffffffffffffffffffffffffffffffffffffff163373ffffffffffffffffffffffffffffffffffffffff16145b6103bc576040517f08c379a00000000000000000000000000000000000000000000000000000000081526004016103b3906112de565b60405180910390fd5b60038160020160006101000a81548160ff021916908360038111156103e4576103e3610f62565b5b021790555061045c8160000160009054906101000a900473ffffffffffffffffffffffffffffffffffffffff1682600101547f000000000000000000000000000000000000000000000000000000000000000073ffffffffffffffffffffffffffffffffffffffff16610b709092919063ffffffff16565b8060000160009054906101000a900473ffffffffffffffffffffffffffffffffffffffff1673ffffffffffffffffffffffffffffffffffffffff16827f8b7a551d23f6a979c88b4753bede741d74553e8d70650ddf73b8d2655c2daea483600101546040516104cb91906112fe565b60405180910390a35050565b600160009054906101000a900473ffffffffffffffffffffffffffffffffffffffff1681565b610505610bc3565b61050f6000610c4a565b565b6000600381111561052557610524610f62565b5b6002600084815260200190815260200160002060020160009054906101000a900460ff16600381111561055b5761055a610f62565b5b1461059b576040517f08c379a000000000000000000000000000000000000000000000000000000000815260040161059290611365565b60405180910390fd5b600081116105de576040517f08c379a00000000000000000000000000000000000000000000000000000000081526004016105d5906113d1565b60405180910390fd5b61062b3330837f000000000000000000000000000000000000000000000000000000000000000073ffffffffffffffffffffffffffffffffffffffff16610d0e909392919063ffffffff16565b60405180608001604052803373ffffffffffffffffffffffffffffffffffffffff1681526020018281526020016001600381111561066c5761066b610f62565b5b8152602001428152506002600084815260200190815260200160002060008201518160000160006101000a81548173ffffffffffffffffffffffffffffffffffffffff021916908373ffffffffffffffffffffffffffffffffffffffff1602179055506020820151816001015560408201518160020160006101000a81548160ff0219169083600381111561070457610703610f62565b5b0217905550606082015181600301559050503373ffffffffffffffffffffffffffffffffffffffff16827f68272464c3f4dc0631f2aa045371da2ccdd7cef96237f49b36c3ed5599d8bc498360405161075d91906112fe565b60405180910390a35050565b60008060009054906101000a900473ffffffffffffffffffffffffffffffffffffffff16905090565b6000600260008381526020019081526020016000209050600160038111156107bd576107bc610f62565b5b8160020160009054906101000a900460ff1660038111156107e1576107e0610f62565b5b14610821576040517f08c379a000000000000000000000000000000000000000000000000000000000815260040161081890611272565b60405180910390fd5b3373ffffffffffffffffffffffffffffffffffffffff168160000160009054906101000a900473ffffffffffffffffffffffffffffffffffffffff1673ffffffffffffffffffffffffffffffffffffffff16146108b3576040517f08c379a00000000000000000000000000000000000000000000000000000000081526004016108aa9061143d565b60405180910390fd5b60028160020160006101000a81548160ff021916908360038111156108db576108da610f62565b5b0217905550610951600160009054906101000a900473ffffffffffffffffffffffffffffffffffffffff1682600101547f000000000000000000000000000000000000000000000000000000000000000073ffffffffffffffffffffffffffffffffffffffff16610b709092919063ffffffff16565b3373ffffffffffffffffffffffffffffffffffffffff16827f62eb4bd96d9a7a66875a9f46f9f9d8bf6cfed3fe0578671b752301427d2a4f66836001015460405161099c91906112fe565b60405180910390a35050565b6109b0610e50565b600260008381526020019081526020016000206040518060800160405290816000820160009054906101000a900473ffffffffffffffffffffffffffffffffffffffff1673ffffffffffffffffffffffffffffffffffffffff1673ffffffffffffffffffffffffffffffffffffffff168152602001600182015481526020016002820160009054906101000a900460ff166003811115610a5357610a52610f62565b5b6003811115610a6557610a64610f62565b5b81526020016003820154815250509050919050565b610a82610bc3565b80600160006101000a81548173ffffffffffffffffffffffffffffffffffffffff021916908373ffffffffffffffffffffffffffffffffffffffff16021790555050565b610ace610bc3565b600073ffffffffffffffffffffffffffffffffffffffff168173ffffffffffffffffffffffffffffffffffffffff1603610b405760006040517f1e4fbdf7000000000000000000000000000000000000000000000000000000008152600401610b37919061101e565b60405180910390fd5b610b4981610c4a565b50565b7f000000000000000000000000000000000000000000000000000000000000000081565b610b7d8383836001610d63565b610bbe57826040517f5274afe7000000000000000000000000000000000000000000000000000000008152600401610bb5919061101e565b60405180910390fd5b505050565b610bcb610dcd565b73ffffffffffffffffffffffffffffffffffffffff16610be9610769565b73ffffffffffffffffffffffffffffffffffffffff1614610c4857610c0c610dcd565b6040517f118cdaa7000000000000000000000000000000000000000000000000000000008152600401610c3f919061101e565b60405180910390fd5b565b60008060009054906101000a900473ffffffffffffffffffffffffffffffffffffffff169050816000806101000a81548173ffffffffffffffffffffffffffffffffffffffff021916908373ffffffffffffffffffffffffffffffffffffffff1602179055508173ffffffffffffffffffffffffffffffffffffffff168173ffffffffffffffffffffffffffffffffffffffff167f8be0079c531659141344cd1fd0a4f28419497f9722a3daafe3b4186f6b6457e060405160405180910390a35050565b610d1c848484846001610dd5565b610d5d57836040517f5274afe7000000000000000000000000000000000000000000000000000000008152600401610d54919061101e565b60405180910390fd5b50505050565b60008063a9059cbb60e01b90506040518160005260001960601c8616600452846024526020600060446000808b5af192506001600051148316610dbf578383151615610db2573d6000823e3d81fd5b6000873b113d1516831692505b806040525050949350505050565b600033905090565b6000806323b872dd60e01b90506040518160005260001960601c871660045260001960601c8616602452846044526020600060646000808c5af192506001600051148316610e3c578383151615610e2f573d6000823e3d81fd5b6000883b113d1516831692505b806040526000606052505095945050505050565b6040518060800160405280600073ffffffffffffffffffffffffffffffffffffffff1681526020016000815260200160006003811115610e9357610e92610f62565b5b8152602001600081525090565b600080fd5b6000819050919050565b610eb881610ea5565b8114610ec357600080fd5b50565b600081359050610ed581610eaf565b92915050565b600060208284031215610ef157610ef0610ea0565b5b6000610eff84828501610ec6565b91505092915050565b600073ffffffffffffffffffffffffffffffffffffffff82169050919050565b6000610f3382610f08565b9050919050565b610f4381610f28565b82525050565b6000819050919050565b610f5c81610f49565b82525050565b7f4e487b7100000000000000000000000000000000000000000000000000000000600052602160045260246000fd5b60048110610fa257610fa1610f62565b5b50565b6000819050610fb382610f91565b919050565b6000610fc382610fa5565b9050919050565b610fd381610fb8565b82525050565b6000608082019050610fee6000830187610f3a565b610ffb6020830186610f53565b6110086040830185610fca565b6110156060830184610f53565b95945050505050565b60006020820190506110336000830184610f3a565b92915050565b61104281610f49565b811461104d57600080fd5b50565b60008135905061105f81611039565b92915050565b6000806040838503121561107c5761107b610ea0565b5b600061108a85828601610ec6565b925050602061109b85828601611050565b9150509250929050565b6110ae81610f28565b82525050565b6110bd81610f49565b82525050565b6110cc81610fb8565b82525050565b6080820160008201516110e860008501826110a5565b5060208201516110fb60208501826110b4565b50604082015161110e60408501826110c3565b50606082015161112160608501826110b4565b50505050565b600060808201905061113c60008301846110d2565b92915050565b61114b81610f28565b811461115657600080fd5b50565b60008135905061116881611142565b92915050565b60006020828403121561118457611183610ea0565b5b600061119284828501611159565b91505092915050565b6000819050919050565b60006111c06111bb6111b684610f08565b61119b565b610f08565b9050919050565b60006111d2826111a5565b9050919050565b60006111e4826111c7565b9050919050565b6111f4816111d9565b82525050565b600060208201905061120f60008301846111eb565b92915050565b600082825260208201905092915050565b7f4e6f7420696e206c6f636b656420737461746500000000000000000000000000600082015250565b600061125c601383611215565b915061126782611226565b602082019050919050565b6000602082019050818103600083015261128b8161124f565b9050919050565b7f4f6e6c79206275796572206f72206f776e65722063616e20726566756e640000600082015250565b60006112c8601e83611215565b91506112d382611292565b602082019050919050565b600060208201905081810360008301526112f7816112bb565b9050919050565b60006020820190506113136000830184610f53565b92915050565b7f4f7264657220616c726561647920657869737473000000000000000000000000600082015250565b600061134f601483611215565b915061135a82611319565b602082019050919050565b6000602082019050818103600083015261137e81611342565b9050919050565b7f416d6f756e74206d757374206265203e20300000000000000000000000000000600082015250565b60006113bb601283611215565b91506113c682611385565b602082019050919050565b600060208201905081810360008301526113ea816113ae565b9050919050565b7f4f6e6c792062757965722063616e2072656c6561736500000000000000000000600082015250565b6000611427601683611215565b9150611432826113f1565b602082019050919050565b600060208201905081810360008301526114568161141a565b905091905056fea26469706673582212209cd3f935423e0b2d58e0f53d366e5ae25d47308cf04cc0dd0968fbcde0970eb964736f6c63430008140033",
  "linkReferences": {},
  "deployedLinkReferences": {}
}