{
    "_format": "hh-sol-artifact-1",
    "contractName": "ActifyToken",
    "sourceName": "contracts/ActifyToken.sol",
    "abi": [
        {
            "inputs": [],
            "stateMutability": "nonpayable",
            "type": "constructor"
        },
        {
            "inputs": [
                {
                    "internalType": "address",
                    "name": "spender",
                    "type": "address"
                },
                {
                    "internalType": "uint256",
                    "name": "allowance",
                    "type": "uint256"
                },
                {
                    "internalType": "uint256",
                    "name": "needed",
                    "type": "uint256"
                }
            ],
            "name": "ERC20InsufficientAllowance",
            "type": "error"
        },
        {
            "inputs": [
                {
                    "internalType": "address",
                    "name": "sender",
                    "type": "address"
                },
                {
                    "internalType": "uint256",
                    "name": "balance",
                    "type": "uint256"
                },
                {
                    "internalType": "uint256",
                    "name": "needed",
                    "type": "uint256"
                }
            ],
            "name": "ERC20InsufficientBalance",
            "type": "error"
        },
        {
            "inputs": [
                {
                    "internalType": "address",
                    "name": "approver",
                    "type": "address"
                }
            ],
            "name": "ERC20InvalidApprover",
            "type": "error"
        },
        {
            "inputs": [
                {
                    "internalType": "address",
                    "name": "receiver",
                    "type": "address"
                }
            ],
            "name": "ERC20InvalidReceiver",
            "type": "error"
        },
        {
            "inputs": [
                {
                    "internalType": "address",
                    "name": "sender",
                    "type": "address"
                }
            ],
            "name": "ERC20InvalidSender",
            "type": "error"
        },
        {
            "inputs": [
                {
                    "internalType": "address",
                    "name": "spender",
                    "type": "address"
                }
            ],
            "name": "ERC20InvalidSpender",
            "type": "error"
        },
        {
            "inputs": [
                {
                    "internalType": "address",
                    "name": "owner",
                    "type": "address"
                }
            ],
            "name": "OwnableInvalidOwner",
            "type": "error"
        },
        {
            "inputs": [
                {
                    "internalType": "address",
                    "name": "account",
                    "type": "address"
                }
            ],
            "name": "OwnableUnauthorizedAccount",
            "type": "error"
        },
        {
            "anonymous": false,
            "inputs": [
                {
                    "indexed": true,
                    "internalType": "address",
                    "name": "owner",
                    "type": "address"
                },
                {
                    "indexed": true,
                    "internalType": "address",
                    "name": "spender",
                    "type": "address"
                },
                {
                    "indexed": false,
                    "internalType": "uint256",
                    "name": "value",
                    "type": "uint256"
                }
            ],
            "name": "Approval",
            "type": "event"
        },
        {
            "anonymous": false,
            "inputs": [
                {
                    "indexed": true,
                    "internalType": "address",
                    "name": "previousOwner",
                    "type": "address"
                },
                {
                    "indexed": true,
                    "internalType": "address",
                    "name": "newOwner",
                    "type": "address"
                }
            ],
            "name": "OwnershipTransferred",
            "type": "event"
        },
        {
            "anonymous": false,
            "inputs": [
                {
                    "indexed": true,
                    "internalType": "address",
                    "name": "from",
                    "type": "address"
                },
                {
                    "indexed": true,
                    "internalType": "address",
                    "name": "to",
                    "type": "address"
                },
                {
                    "indexed": false,
                    "internalType": "uint256",
                    "name": "value",
                    "type": "uint256"
                }
            ],
            "name": "Transfer",
            "type": "event"
        },
        {
            "inputs": [],
            "name": "FAUCET_AMOUNT",
            "outputs": [
                {
                    "internalType": "uint256",
                    "name": "",
                    "type": "uint256"
                }
            ],
            "stateMutability": "view",
            "type": "function"
        },
        {
            "inputs": [
                {
                    "internalType": "address",
                    "name": "owner",
                    "type": "address"
                },
                {
                    "internalType": "address",
                    "name": "spender",
                    "type": "address"
                }
            ],
            "name": "allowance",
            "outputs": [
                {
                    "internalType": "uint256",
                    "name": "",
                    "type": "uint256"
                }
            ],
            "stateMutability": "view",
            "type": "function"
        },
        {
            "inputs": [
                {
                    "internalType": "address",
                    "name": "spender",
                    "type": "address"
                },
                {
                    "internalType": "uint256",
                    "name": "value",
                    "type": "uint256"
                }
            ],
            "name": "approve",
            "outputs": [
                {
                    "internalType": "bool",
                    "name": "",
                    "type": "bool"
                }
            ],
            "stateMutability": "nonpayable",
            "type": "function"
        },
        {
            "inputs": [
                {
                    "internalType": "address",
                    "name": "account",
                    "type": "address"
                }
            ],
            "name": "balanceOf",
            "outputs": [
                {
                    "internalType": "uint256",
                    "name": "",
                    "type": "uint256"
                }
            ],
            "stateMutability": "view",
            "type": "function"
        },
        {
            "inputs": [],
            "name": "claimFaucet",
            "outputs": [],
            "stateMutability": "nonpayable",
            "type": "function"
        },
        {
            "inputs": [],
            "name": "decimals",
            "outputs": [
                {
                    "internalType": "uint8",
                    "name": "",
                    "type": "uint8"
                }
            ],
            "stateMutability": "view",
            "type": "function"
        },
        {
            "inputs": [
                {
                    "internalType": "address",
                    "name": "",
                    "type": "address"
                }
            ],
            "name": "hasClaimed",
            "outputs": [
                {
                    "internalType": "bool",
                    "name": "",
                    "type": "bool"
                }
            ],
            "stateMutability": "view",
            "type": "function"
        },
        {
            "inputs": [
                {
                    "internalType": "address",
                    "name": "to",
                    "type": "address"
                },
                {
                    "internalType": "uint256",
                    "name": "amount",
                    "type": "uint256"
                }
            ],
            "name": "mint",
            "outputs": [],
            "stateMutability": "nonpayable",
            "type": "function"
        },
        {
            "inputs": [],
            "name": "name",
            "outputs": [
                {
                    "internalType": "string",
                    "name": "",
                    "type": "string"
                }
            ],
            "stateMutability": "view",
            "type": "function"
        },
        {
            "inputs": [],
            "name": "owner",
            "outputs": [
                {
                    "internalType": "address",
                    "name": "",
                    "type": "address"
                }
            ],
            "stateMutability": "view",
            "type": "function"
        },
        {
            "inputs": [],
            "name": "renounceOwnership",
            "outputs": [],
            "stateMutability": "nonpayable",
            "type": "function"
        },
        {
            "inputs": [],
            "name": "symbol",
            "outputs": [
                {
                    "internalType": "string",
                    "name": "",
                    "type": "string"
                }
            ],
            "stateMutability": "view",
            "type": "function"
        },
        {
            "inputs": [],
            "name": "totalSupply",
            "outputs": [
                {
                    "internalType": "uint256",
                    "name": "",
                    "type": "uint256"
                }
            ],
            "stateMutability": "view",
            "type": "function"
        },
        {
            "inputs": [
                {
                    "internalType": "address",
                    "name": "to",
                    "type": "address"
                },
                {
                    "internalType": "uint256",
                    "name": "value",
                    "type": "uint256"
                }
            ],
            "name": "transfer",
            "outputs": [
                {
                    "internalType": "bool",
                    "name": "",
                    "type": "bool"
                }
            ],
            "stateMutability": "nonpayable",
            "type": "function"
        },
        {
            "inputs": [
                {
                    "internalType": "address",
                    "name": "from",
                    "type": "address"
                },
                {
                    "internalType": "address",
                    "name": "to",
                    "type": "address"
                },
                {
                    "internalType": "uint256",
                    "name": "value",
                    "type": "uint256"
                }
            ],
            "name": "transferFrom",
            "outputs": [
                {
                    "internalType": "bool",
                    "name": "",
                    "type": "bool"
                }
            ],
            "stateMutability": "nonpayable",
            "type": "function"
        },
        {
            "inputs": [
                {
                    "internalType": "address",
                    "name": "newOwner",
                    "type": "address"
                }
            ],
            "name": "transferOwnership",
            "outputs": [],
            "stateMutability": "nonpayable",
            "type": "function"
        }
    ],
    "bytecode": "0x608060405234801561000f575f80fd5b50336040518060400160405280600c81526020017f41637469667920546f6b656e00000000000000000000000000000000000000008152506040518060400160405280600381526020017f4143540000000000000000000000000000000000000000000000000000000000815250816003908161008c9190610421565b50806004908161009c9190610421565b5050505f73ffffffffffffffffffffffffffffffffffffffff168173ffffffffffffffffffffffffffffffffffffffff160361010f575f6040517f1e4fbdf7000000000000000000000000000000000000000000000000000000008152600401610106919061052f565b60405180910390fd5b61011e8161012460201b60201c565b50610548565b5f60055f9054906101000a900473ffffffffffffffffffffffffffffffffffffffff1690508160055f6101000a81548173ffffffffffffffffffffffffffffffffffffffff021916908373ffffffffffffffffffffffffffffffffffffffff1602179055508173ffffffffffffffffffffffffffffffffffffffff168173ffffffffffffffffffffffffffffffffffffffff167f8be0079c531659141344cd1fd0a4f28419497f9722a3daafe3b4186f6b6457e060405160405180910390a35050565b5f81519050919050565b7f4e487b71000000000000000000000000000000000000000000000000000000005f52604160045260245ffd5b7f4e487b71000000000000000000000000000000000000000000000000000000005f52602260045260245ffd5b5f600282049050600182168061026257607f821691505b6020821081036102755761027461021e565b5b50919050565b5f819050815f5260205f209050919050565b5f6020601f8301049050919050565b5f82821b905092915050565b5f600883026102d77fffffffffffffffffffffffffffffffffffffffffffffffffffffffffffffffff8261029c565b6102e1868361029c565b95508019841693508086168417925050509392505050565b5f819050919050565b5f819050919050565b5f61032561032061031b846102f9565b610302565b6102f9565b9050919050565b5f819050919050565b61033e8361030b565b61035261034a8261032c565b8484546102a8565b825550505050565b5f90565b61036661035a565b610371818484610335565b505050565b5b81811015610394576103895f8261035e565b600181019050610377565b5050565b601f8211156103d9576103aa8161027b565b6103b38461028d565b810160208510156103c2578190505b6103d66103ce8561028d565b830182610376565b50505b505050565b5f82821c905092915050565b5f6103f95f19846008026103de565b1980831691505092915050565b5f61041183836103ea565b9150826002028217905092915050565b61042a826101e7565b67ffffffffffffffff811115610443576104426101f1565b5b61044d825461024b565b610458828285610398565b5f60209050601f831160018114610489575f8415610477578287015190505b6104818582610406565b8655506104e8565b601f1984166104978661027b565b5f5b828110156104be57848901518255600182019150602085019450602081019050610499565b868310156104db57848901516104d7601f8916826103ea565b8355505b6001600288020188555050505b505050505050565b5f73ffffffffffffffffffffffffffffffffffffffff82169050919050565b5f610519826104f0565b9050919050565b6105298161050f565b82525050565b5f6020820190506105425f830184610520565b92915050565b61132b806105555f395ff3fe608060405234801561000f575f80fd5b50600436106100fe575f3560e01c8063715018a61161009557806395d89b411161006457806395d89b4114610288578063a9059cbb146102a6578063dd62ed3e146102d6578063f2fde38b14610306576100fe565b8063715018a61461021257806373b2e80e1461021c578063766976401461024c5780638da5cb5b1461026a576100fe565b8063313ce567116100d1578063313ce5671461019e57806340c10f19146101bc5780634fe15335146101d857806370a08231146101e2576100fe565b806306fdde0314610102578063095ea7b31461012057806318160ddd1461015057806323b872dd1461016e575b5f80fd5b61010a610322565b6040516101179190610f3c565b60405180910390f35b61013a60048036038101906101359190610fed565b6103b2565b6040516101479190611045565b60405180910390f35b6101586103d4565b604051610165919061106d565b60405180910390f35b61018860048036038101906101839190611086565b6103dd565b6040516101959190611045565b60405180910390f35b6101a661040b565b6040516101b391906110f1565b60405180910390f35b6101d660048036038101906101d19190610fed565b610413565b005b6101e0610429565b005b6101fc60048036038101906101f7919061110a565b61051d565b604051610209919061106d565b60405180910390f35b61021a610562565b005b6102366004803603810190610231919061110a565b610575565b6040516102439190611045565b60405180910390f35b610254610592565b604051610261919061106d565b60405180910390f35b61027261059f565b60405161027f9190611144565b60405180910390f35b6102906105c7565b60405161029d9190610f3c565b60405180910390f35b6102c060048036038101906102bb9190610fed565b610657565b6040516102cd9190611045565b60405180910390f35b6102f060048036038101906102eb919061115d565b610679565b6040516102fd919061106d565b60405180910390f35b610320600480360381019061031b919061110a565b6106fb565b005b606060038054610331906111c8565b80601f016020809104026020016040519081016040528092919081815260200182805461035d906111c8565b80156103a85780601f1061037f576101008083540402835291602001916103a8565b820191905f5260205f20905b81548152906001019060200180831161038b57829003601f168201915b5050505050905090565b5f806103bc61077f565b90506103c9818585610786565b600191505092915050565b5f600254905090565b5f806103e761077f565b90506103f4858285610798565b6103ff85858561082b565b60019150509392505050565b5f6012905090565b61041b61091b565b61042582826109a2565b5050565b60065f3373ffffffffffffffffffffffffffffffffffffffff1673ffffffffffffffffffffffffffffffffffffffff1681526020019081526020015f205f9054906101000a900460ff16156104b3576040517f08c379a00000000000000000000000000000000000000000000000000000000081526004016104aa90611242565b60405180910390fd5b600160065f3373ffffffffffffffffffffffffffffffffffffffff1673ffffffffffffffffffffffffffffffffffffffff1681526020019081526020015f205f6101000a81548160ff02191690831515021790555061051b33683635c9adc5dea000006109a2565b565b5f805f8373ffffffffffffffffffffffffffffffffffffffff1673ffffffffffffffffffffffffffffffffffffffff1681526020019081526020015f20549050919050565b61056a61091b565b6105735f610a21565b565b6006602052805f5260405f205f915054906101000a900460ff1681565b683635c9adc5dea0000081565b5f60055f9054906101000a900473ffffffffffffffffffffffffffffffffffffffff16905090565b6060600480546105d6906111c8565b80601f0160208091040260200160405190810160405280929190818152602001828054610602906111c8565b801561064d5780601f106106245761010080835404028352916020019161064d565b820191905f5260205f20905b81548152906001019060200180831161063057829003601f168201915b5050505050905090565b5f8061066161077f565b905061066e81858561082b565b600191505092915050565b5f60015f8473ffffffffffffffffffffffffffffffffffffffff1673ffffffffffffffffffffffffffffffffffffffff1681526020019081526020015f205f8373ffffffffffffffffffffffffffffffffffffffff1673ffffffffffffffffffffffffffffffffffffffff1681526020019081526020015f2054905092915050565b61070361091b565b5f73ffffffffffffffffffffffffffffffffffffffff168173ffffffffffffffffffffffffffffffffffffffff1603610773575f6040517f1e4fbdf700000000000000000000000000000000000000000000000000000000815260040161076a9190611144565b60405180910390fd5b61077c81610a21565b50565b5f33905090565b6107938383836001610ae4565b505050565b5f6107a38484610679565b90507fffffffffffffffffffffffffffffffffffffffffffffffffffffffffffffffff8110156108255781811015610816578281836040517ffb8f41b200000000000000000000000000000000000000000000000000000000815260040161080d93929190611260565b60405180910390fd5b61082484848484035f610ae4565b5b50505050565b5f73ffffffffffffffffffffffffffffffffffffffff168373ffffffffffffffffffffffffffffffffffffffff160361089b575f6040517f96c6fd1e0000000000000000000000000000000000000000000000000000000081526004016108929190611144565b60405180910390fd5b5f73ffffffffffffffffffffffffffffffffffffffff168273ffffffffffffffffffffffffffffffffffffffff160361090b575f6040517fec442f050000000000000000000000000000000000000000000000000000000081526004016109029190611144565b60405180910390fd5b610916838383610cb3565b505050565b61092361077f565b73ffffffffffffffffffffffffffffffffffffffff1661094161059f565b73ffffffffffffffffffffffffffffffffffffffff16146109a05761096461077f565b6040517f118cdaa70000000000000000000000000000000000000000000000000000000081526004016109979190611144565b60405180910390fd5b565b5f73ffffffffffffffffffffffffffffffffffffffff168273ffffffffffffffffffffffffffffffffffffffff1603610a12575f6040517fec442f05000000000000000000000000000000000000000000000000000000008152600401610a099190611144565b60405180910390fd5b610a1d5f8383610cb3565b5050565b5f60055f9054906101000a900473ffffffffffffffffffffffffffffffffffffffff1690508160055f6101000a81548173ffffffffffffffffffffffffffffffffffffffff021916908373ffffffffffffffffffffffffffffffffffffffff1602179055508173ffffffffffffffffffffffffffffffffffffffff168173ffffffffffffffffffffffffffffffffffffffff167f8be0079c531659141344cd1fd0a4f28419497f9722a3daafe3b4186f6b6457e060405160405180910390a35050565b5f73ffffffffffffffffffffffffffffffffffffffff168473ffffffffffffffffffffffffffffffffffffffff1603610b54575f6040517fe602df05000000000000000000000000000000000000000000000000000000008152600401610b4b9190611144565b60405180910390fd5b5f73ffffffffffffffffffffffffffffffffffffffff168373ffffffffffffffffffffffffffffffffffffffff1603610bc4575f6040517f94280d62000000000000000000000000000000000000000000000000000000008152600401610bbb9190611144565b60405180910390fd5b8160015f8673ffffffffffffffffffffffffffffffffffffffff1673ffffffffffffffffffffffffffffffffffffffff1681526020019081526020015f205f8573ffffffffffffffffffffffffffffffffffffffff1673ffffffffffffffffffffffffffffffffffffffff1681526020019081526020015f20819055508015610cad578273ffffffffffffffffffffffffffffffffffffffff168473ffffffffffffffffffffffffffffffffffffffff167f8c5be1e5ebec7d5bd14f71427d1e84f3dd0314c0f7b2291e5b200ac8c7c3b92584604051610ca4919061106d565b60405180910390a35b50505050565b5f73ffffffffffffffffffffffffffffffffffffffff168373ffffffffffffffffffffffffffffffffffffffff1603610d03578060025f828254610cf791906112c2565b92505081905550610dd1565b5f805f8573ffffffffffffffffffffffffffffffffffffffff1673ffffffffffffffffffffffffffffffffffffffff1681526020019081526020015f2054905081811015610d8c578381836040517fe450d38c000000000000000000000000000000000000000000000000000000008152600401610d8393929190611260565b60405180910390fd5b8181035f808673ffffffffffffffffffffffffffffffffffffffff1673ffffffffffffffffffffffffffffffffffffffff1681526020019081526020015f2081905550505b5f73ffffffffffffffffffffffffffffffffffffffff168273ffffffffffffffffffffffffffffffffffffffff1603610e18578060025f8282540392505081905550610e62565b805f808473ffffffffffffffffffffffffffffffffffffffff1673ffffffffffffffffffffffffffffffffffffffff1681526020019081526020015f205f82825401925050819055505b8173ffffffffffffffffffffffffffffffffffffffff168373ffffffffffffffffffffffffffffffffffffffff167fddf252ad1be2c89b69c2b068fc378daa952ba7f163c4a11628f55a4df523b3ef83604051610ebf919061106d565b60405180910390a3505050565b5f81519050919050565b5f82825260208201905092915050565b8281835e5f83830152505050565b5f601f19601f8301169050919050565b5f610f0e82610ecc565b610f188185610ed6565b9350610f28818560208601610ee6565b610f3181610ef4565b840191505092915050565b5f6020820190508181035f830152610f548184610f04565b905092915050565b5f80fd5b5f73ffffffffffffffffffffffffffffffffffffffff82169050919050565b5f610f8982610f60565b9050919050565b610f9981610f7f565b8114610fa3575f80fd5b50565b5f81359050610fb481610f90565b92915050565b5f819050919050565b610fcc81610fba565b8114610fd6575f80fd5b50565b5f81359050610fe781610fc3565b92915050565b5f806040838503121561100357611002610f5c565b5b5f61101085828601610fa6565b925050602061102185828601610fd9565b9150509250929050565b5f8115159050919050565b61103f8161102b565b82525050565b5f6020820190506110585f830184611036565b92915050565b61106781610fba565b82525050565b5f6020820190506110805f83018461105e565b92915050565b5f805f6060848603121561109d5761109c610f5c565b5b5f6110aa86828701610fa6565b93505060206110bb86828701610fa6565b92505060406110cc86828701610fd9565b9150509250925092565b5f60ff82169050919050565b6110eb816110d6565b82525050565b5f6020820190506111045f8301846110e2565b92915050565b5f6020828403121561111f5761111e610f5c565b5b5f61112c84828501610fa6565b91505092915050565b61113e81610f7f565b82525050565b5f6020820190506111575f830184611135565b92915050565b5f806040838503121561117357611172610f5c565b5b5f61118085828601610fa6565b925050602061119185828601610fa6565b9150509250929050565b7f4e487b71000000000000000000000000000000000000000000000000000000005f52602260045260245ffd5b5f60028204905060018216806111df57607f821691505b6020821081036111f2576111f161119b565b5b50919050565b7f416c726561647920636c61696d656400000000000000000000000000000000005f82015250565b5f61122c600f83610ed6565b9150611237826111f8565b602082019050919050565b5f6020820190508181035f83015261125981611220565b9050919050565b5f6060820190506112735f830186611135565b611280602083018561105e565b61128d604083018461105e565b949350505050565b7f4e487b71000000000000000000000000000000000000000000000000000000005f52601160045260245ffd5b5f6112cc82610fba565b91506112d783610fba565b92508282019050808211156112ef576112ee611295565b5b9291505056fea2646970667358221220767faee0ab1b707230aa6469d0c4fd445d90cd1c1792d05d23afa9879efeb03164736f6c634300081a0033",
    "deployedBytecode": "0x608060405234801561001057600080fd5b50600436106101005760003560e01c8063715018a61161009757806395d89b411161006657806395d89b411461028b578063a9059cbb146102a9578063dd62ed3e146102d9578063f2fde38b1461030957610100565b8063715018a61461021557806373b2e80e1461021f578063766976401461024f5780638da5cb5b1461026d57610100565b8063313ce567116100d3578063313ce567146101a157806340c10f19146101bf5780634fe15335146101db57806370a08231146101e557610100565b806306fdde0314610105578063095ea7b31461012357806318160ddd1461015357806323b872dd14610171575b600080fd5b61010d610325565b60405161011a9190610f9f565b60405180910390f35b61013d6004803603810190610138919061105a565b6103b7565b60405161014a91906110b5565b60405180910390f35b61015b6103da565b60405161016891906110df565b60405180910390f35b61018b600480360381019061018691906110fa565b6103e4565b60405161019891906110b5565b60405180910390f35b6101a9610413565b6040516101b69190611169565b60405180910390f35b6101d960048036038101906101d4919061105a565b61041c565b005b6101e3610432565b005b6101ff60048036038101906101fa9190611184565b61052c565b60405161020c91906110df565b60405180910390f35b61021d610574565b005b61023960048036038101906102349190611184565b610588565b60405161024691906110b5565b60405180910390f35b6102576105a8565b60405161026491906110df565b60405180910390f35b6102756105b5565b60405161028291906111c0565b60405180910390f35b6102936105df565b6040516102a09190610f9f565b60405180910390f35b6102c360048036038101906102be919061105a565b610671565b6040516102d091906110b5565b60405180910390f35b6102f360048036038101906102ee91906111db565b610694565b60405161030091906110df565b60405180910390f35b610323600480360381019061031e9190611184565b61071b565b005b6060600380546103349061124a565b80601f01602080910402602001604051908101604052809291908181526020018280546103609061124a565b80156103ad5780601f10610382576101008083540402835291602001916103ad565b820191906000526020600020905b81548152906001019060200180831161039057829003601f168201915b5050505050905090565b6000806103c26107a1565b90506103cf8185856107a9565b600191505092915050565b6000600254905090565b6000806103ef6107a1565b90506103fc8582856107bb565b610407858585610850565b60019150509392505050565b60006012905090565b610424610944565b61042e82826109cb565b5050565b600660003373ffffffffffffffffffffffffffffffffffffffff1673ffffffffffffffffffffffffffffffffffffffff16815260200190815260200160002060009054906101000a900460ff16156104bf576040517f08c379a00000000000000000000000000000000000000000000000000000000081526004016104b6906112c7565b60405180910390fd5b6001600660003373ffffffffffffffffffffffffffffffffffffffff1673ffffffffffffffffffffffffffffffffffffffff16815260200190815260200160002060006101000a81548160ff02191690831515021790555061052a3368056bc75e2d631000006109cb565b565b60008060008373ffffffffffffffffffffffffffffffffffffffff1673ffffffffffffffffffffffffffffffffffffffff168152602001908152602001600020549050919050565b61057c610944565b6105866000610a4d565b565b60066020528060005260406000206000915054906101000a900460ff1681565b68056bc75e2d6310000081565b6000600560009054906101000a900473ffffffffffffffffffffffffffffffffffffffff16905090565b6060600480546105ee9061124a565b80601f016020809104026020016040519081016040528092919081815260200182805461061a9061124a565b80156106675780601f1061063c57610100808354040283529160200191610667565b820191906000526020600020905b81548152906001019060200180831161064a57829003601f168201915b5050505050905090565b60008061067c6107a1565b9050610689818585610850565b600191505092915050565b6000600160008473ffffffffffffffffffffffffffffffffffffffff1673ffffffffffffffffffffffffffffffffffffffff16815260200190815260200160002060008373ffffffffffffffffffffffffffffffffffffffff1673ffffffffffffffffffffffffffffffffffffffff16815260200190815260200160002054905092915050565b610723610944565b600073ffffffffffffffffffffffffffffffffffffffff168173ffffffffffffffffffffffffffffffffffffffff16036107955760006040517f1e4fbdf700000000000000000000000000000000000000000000000000000000815260040161078c91906111c0565b60405180910390fd5b61079e81610a4d565b50565b600033905090565b6107b68383836001610b13565b505050565b60006107c78484610694565b90507fffffffffffffffffffffffffffffffffffffffffffffffffffffffffffffffff81101561084a578181101561083a578281836040517ffb8f41b2000000000000000000000000000000000000000000000000000000008152600401610831939291906112e7565b60405180910390fd5b61084984848484036000610b13565b5b50505050565b600073ffffffffffffffffffffffffffffffffffffffff168373ffffffffffffffffffffffffffffffffffffffff16036108c25760006040517f96c6fd1e0000000000000000000000000000000000000000000000000000000081526004016108b991906111c0565b60405180910390fd5b600073ffffffffffffffffffffffffffffffffffffffff168273ffffffffffffffffffffffffffffffffffffffff16036109345760006040517fec442f0500000000000000000000000000000000000000000000000000000000815260040161092b91906111c0565b60405180910390fd5b61093f838383610cea565b505050565b61094c6107a1565b73ffffffffffffffffffffffffffffffffffffffff1661096a6105b5565b73ffffffffffffffffffffffffffffffffffffffff16146109c95761098d6107a1565b6040517f118cdaa70000000000000000000000000000000000000000000000000000000081526004016109c091906111c0565b60405180910390fd5b565b600073ffffffffffffffffffffffffffffffffffffffff168273ffffffffffffffffffffffffffffffffffffffff1603610a3d5760006040517fec442f05000000000000000000000000000000000000000000000000000000008152600401610a3491906111c0565b60405180910390fd5b610a4960008383610cea565b5050565b6000600560009054906101000a900473ffffffffffffffffffffffffffffffffffffffff16905081600560006101000a81548173ffffffffffffffffffffffffffffffffffffffff021916908373ffffffffffffffffffffffffffffffffffffffff1602179055508173ffffffffffffffffffffffffffffffffffffffff168173ffffffffffffffffffffffffffffffffffffffff167f8be0079c531659141344cd1fd0a4f28419497f9722a3daafe3b4186f6b6457e060405160405180910390a35050565b600073ffffffffffffffffffffffffffffffffffffffff168473ffffffffffffffffffffffffffffffffffffffff1603610b855760006040517fe602df05000000000000000000000000000000000000000000000000000000008152600401610b7c91906111c0565b60405180910390fd5b600073ffffffffffffffffffffffffffffffffffffffff168373ffffffffffffffffffffffffffffffffffffffff1603610bf75760006040517f94280d62000000000000000000000000000000000000000000000000000000008152600401610bee91906111c0565b60405180910390fd5b81600160008673ffffffffffffffffffffffffffffffffffffffff1673ffffffffffffffffffffffffffffffffffffffff16815260200190815260200160002060008573ffffffffffffffffffffffffffffffffffffffff1673ffffffffffffffffffffffffffffffffffffffff168152602001908152602001600020819055508015610ce4578273ffffffffffffffffffffffffffffffffffffffff168473ffffffffffffffffffffffffffffffffffffffff167f8c5be1e5ebec7d5bd14f71427d1e84f3dd0314c0f7b2291e5b200ac8c7c3b92584604051610cdb91906110df565b60405180910390a35b50505050565b600073ffffffffffffffffffffffffffffffffffffffff168373ffffffffffffffffffffffffffffffffffffffff1603610d3c578060026000828254610d30919061134d565b92505081905550610e0f565b60008060008573ffffffffffffffffffffffffffffffffffffffff1673ffffffffffffffffffffffffffffffffffffffff16815260200190815260200160002054905081811015610dc8578381836040517fe450d38c000000000000000000000000000000000000000000000000000000008152600401610dbf939291906112e7565b60405180910390fd5b8181036000808673ffffffffffffffffffffffffffffffffffffffff1673ffffffffffffffffffffffffffffffffffffffff16815260200190815260200160002081905550505b600073ffffffffffffffffffffffffffffffffffffffff168273ffffffffffffffffffffffffffffffffffffffff1603610e585780600260008282540392505081905550610ea5565b806000808473ffffffffffffffffffffffffffffffffffffffff1673ffffffffffffffffffffffffffffffffffffffff168152602001908152602001600020600082825401925050819055505b8173ffffffffffffffffffffffffffffffffffffffff168373ffffffffffffffffffffffffffffffffffffffff167fddf252ad1be2c89b69c2b068fc378daa952ba7f163c4a11628f55a4df523b3ef83604051610f0291906110df565b60405180910390a3505050565b600081519050919050565b600082825260208201905092915050565b60005b83811015610f49578082015181840152602081019050610f2e565b60008484015250505050565b6000601f19601f8301169050919050565b6000610f7182610f0f565b610f7b8185610f1a565b9350610f8b818560208601610f2b565b610f9481610f55565b840191505092915050565b60006020820190508181036000830152610fb98184610f66565b905092915050565b600080fd5b600073ffffffffffffffffffffffffffffffffffffffff82169050919050565b6000610ff182610fc6565b9050919050565b61100181610fe6565b811461100c57600080fd5b50565b60008135905061101e81610ff8565b92915050565b6000819050919050565b61103781611024565b811461104257600080fd5b50565b6000813590506110548161102e565b92915050565b6000806040838503121561107157611070610fc1565b5b600061107f8582860161100f565b925050602061109085828601611045565b9150509250929050565b60008115159050919050565b6110af8161109a565b82525050565b60006020820190506110ca60008301846110a6565b92915050565b6110d981611024565b82525050565b60006020820190506110f460008301846110d0565b92915050565b60008060006060848603121561111357611112610fc1565b5b60006111218682870161100f565b93505060206111328682870161100f565b925050604061114386828701611045565b9150509250925092565b600060ff82169050919050565b6111638161114d565b82525050565b600060208201905061117e600083018461115a565b92915050565b60006020828403121561119a57611199610fc1565b5b60006111a88482850161100f565b91505092915050565b6111ba81610fe6565b82525050565b60006020820190506111d560008301846111b1565b92915050565b600080604083850312156111f2576111f1610fc1565b5b60006112008582860161100f565b92505060206112118582860161100f565b9150509250929050565b7f4e487b7100000000000000000000000000000000000000000000000000000000600052602260045260246000fd5b6000600282049050600182168061126257607f821691505b6020821081036112755761127461121b565b5b50919050565b7f416c726561647920636c61696d65640000000000000000000000000000000000600082015250565b60006112b1600f83610f1a565b91506112bc8261127b565b602082019050919050565b600060208201905081810360008301526112e0816112a4565b9050919050565b60006060820190506112fc60008301866111b1565b61130960208301856110d0565b61131660408301846110d0565b949350505050565b7f4e487b7100000000000000000000000000000000000000000000000000000000600052601160045260246000fd5b600061135882611024565b915061136383611024565b925082820190508082111561137b5761137a61131e565b5b9291505056fea264697066735822122018230e691c73240a20eebab7e0fabad711f9008e94dbb635efce7575694df06964736f6c63430008140033",
    "linkReferences": {},
    "deployedLinkReferences": {}
}